{
  "contractName": "DBank",
  "abi": [
    {
      "inputs": [
        {
          "internalType": "contract Token",
          "name": "_token",
          "type": "address"
        }
      ],
      "stateMutability": "nonpayable",
      "type": "constructor"
    },
    {
      "anonymous": false,
      "inputs": [
        {
          "indexed": true,
          "internalType": "address",
          "name": "user",
          "type": "address"
        },
        {
          "indexed": false,
          "internalType": "uint256",
          "name": "etherAmout",
          "type": "uint256"
        },
        {
          "indexed": false,
          "internalType": "uint256",
          "name": "timeStart",
          "type": "uint256"
        }
      ],
      "name": "Deposite",
      "type": "event"
    },
    {
      "anonymous": false,
      "inputs": [
        {
          "indexed": true,
          "internalType": "address",
          "name": "user",
          "type": "address"
        },
        {
          "indexed": false,
          "internalType": "uint256",
          "name": "etherAmout",
          "type": "uint256"
        },
        {
          "indexed": false,
          "internalType": "uint256",
          "name": "depositTime",
          "type": "uint256"
        },
        {
          "indexed": false,
          "internalType": "uint256",
          "name": "interest",
          "type": "uint256"
        }
      ],
      "name": "Withdraw",
      "type": "event"
    },
    {
      "inputs": [
        {
          "internalType": "address",
          "name": "",
          "type": "address"
        }
      ],
      "name": "depositStart",
      "outputs": [
        {
          "internalType": "uint256",
          "name": "",
          "type": "uint256"
        }
      ],
      "stateMutability": "view",
      "type": "function",
      "constant": true
    },
    {
      "inputs": [
        {
          "internalType": "address",
          "name": "",
          "type": "address"
        }
      ],
      "name": "etherBalanceOf",
      "outputs": [
        {
          "internalType": "uint256",
          "name": "",
          "type": "uint256"
        }
      ],
      "stateMutability": "view",
      "type": "function",
      "constant": true
    },
    {
      "inputs": [
        {
          "internalType": "address",
          "name": "",
          "type": "address"
        }
      ],
      "name": "isDeposited",
      "outputs": [
        {
          "internalType": "bool",
          "name": "",
          "type": "bool"
        }
      ],
      "stateMutability": "view",
      "type": "function",
      "constant": true
    },
    {
      "inputs": [],
      "name": "deposit",
      "outputs": [],
      "stateMutability": "payable",
      "type": "function",
      "payable": true
    },
    {
      "inputs": [],
      "name": "withdraw",
      "outputs": [],
      "stateMutability": "nonpayable",
      "type": "function"
    }
  ],
  "bytecode": "0x608060405234801561001057600080fd5b50604051610dab380380610dab8339818101604052810190610032919061008d565b806000806101000a81548173ffffffffffffffffffffffffffffffffffffffff021916908373ffffffffffffffffffffffffffffffffffffffff16021790555050610111565b600081519050610087816100fa565b92915050565b60006020828403121561009f57600080fd5b60006100ad84828501610078565b91505092915050565b60006100c1826100da565b9050919050565b60006100d3826100b6565b9050919050565b600073ffffffffffffffffffffffffffffffffffffffff82169050919050565b610103816100c8565b811461010e57600080fd5b50565b610c8b806101206000396000f3fe60806040526004361061004a5760003560e01c8063179fc99f1461004f5780633ccfd60b1461008c57806373732024146100a3578063d0e30db0146100e0578063ff87930a146100ea575b600080fd5b34801561005b57600080fd5b5061007660048036038101906100719190610817565b610127565b60405161008391906109f7565b60405180910390f35b34801561009857600080fd5b506100a161013f565b005b3480156100af57600080fd5b506100ca60048036038101906100c59190610817565b610527565b6040516100d7919061097c565b60405180910390f35b6100e8610547565b005b3480156100f657600080fd5b50610111600480360381019061010c9190610817565b6107ea565b60405161011e91906109f7565b60405180910390f35b60016020528060005260406000206000915090505481565b60011515600360003373ffffffffffffffffffffffffffffffffffffffff1673ffffffffffffffffffffffffffffffffffffffff16815260200190815260200160002060009054906101000a900460ff161515146101d2576040517f08c379a00000000000000000000000000000000000000000000000000000000081526004016101c990610997565b60405180910390fd5b6000600160003373ffffffffffffffffffffffffffffffffffffffff1673ffffffffffffffffffffffffffffffffffffffff1681526020019081526020016000205490506000600260003373ffffffffffffffffffffffffffffffffffffffff1673ffffffffffffffffffffffffffffffffffffffff16815260200190815260200160002054426102639190610b64565b90506000662386f26fc10000600160003373ffffffffffffffffffffffffffffffffffffffff1673ffffffffffffffffffffffffffffffffffffffff168152602001908152602001600020546102b99190610ad9565b6301e337316102c89190610b0a565b9050600082826102d89190610b0a565b90503373ffffffffffffffffffffffffffffffffffffffff166108fc600160003373ffffffffffffffffffffffffffffffffffffffff1673ffffffffffffffffffffffffffffffffffffffff168152602001908152602001600020549081150290604051600060405180830381858888f1935050505015801561035f573d6000803e3d6000fd5b5060008054906101000a900473ffffffffffffffffffffffffffffffffffffffff1673ffffffffffffffffffffffffffffffffffffffff166340c10f1933836040518363ffffffff1660e01b81526004016103bb929190610953565b600060405180830381600087803b1580156103d557600080fd5b505af11580156103e9573d6000803e3d6000fd5b505050506000600260003373ffffffffffffffffffffffffffffffffffffffff1673ffffffffffffffffffffffffffffffffffffffff168152602001908152602001600020819055506000600160003373ffffffffffffffffffffffffffffffffffffffff1673ffffffffffffffffffffffffffffffffffffffff168152602001908152602001600020819055506000600360003373ffffffffffffffffffffffffffffffffffffffff1673ffffffffffffffffffffffffffffffffffffffff16815260200190815260200160002060006101000a81548160ff0219169083151502179055503373ffffffffffffffffffffffffffffffffffffffff167f02f25270a4d87bea75db541cdfe559334a275b4a233520ed6c0a2429667cca9485858460405161051993929190610a3b565b60405180910390a250505050565b60036020528060005260406000206000915054906101000a900460ff1681565b60001515600360003373ffffffffffffffffffffffffffffffffffffffff1673ffffffffffffffffffffffffffffffffffffffff16815260200190815260200160002060009054906101000a900460ff161515146105da576040517f08c379a00000000000000000000000000000000000000000000000000000000081526004016105d1906109d7565b60405180910390fd5b662386f26fc10000341015610624576040517f08c379a000000000000000000000000000000000000000000000000000000000815260040161061b906109b7565b60405180910390fd5b34600160003373ffffffffffffffffffffffffffffffffffffffff1673ffffffffffffffffffffffffffffffffffffffff1681526020019081526020016000205461066f9190610a83565b600160003373ffffffffffffffffffffffffffffffffffffffff1673ffffffffffffffffffffffffffffffffffffffff1681526020019081526020016000208190555042600260003373ffffffffffffffffffffffffffffffffffffffff1673ffffffffffffffffffffffffffffffffffffffff168152602001908152602001600020546106fd9190610a83565b600260003373ffffffffffffffffffffffffffffffffffffffff1673ffffffffffffffffffffffffffffffffffffffff168152602001908152602001600020819055506001600360003373ffffffffffffffffffffffffffffffffffffffff1673ffffffffffffffffffffffffffffffffffffffff16815260200190815260200160002060006101000a81548160ff0219169083151502179055503373ffffffffffffffffffffffffffffffffffffffff167f1ac1d796426d122cc937df3056b76b5dfff699fe53fc92a80b71da309ca5a11034426040516107e0929190610a12565b60405180910390a2565b60026020528060005260406000206000915090505481565b60008135905061081181610c3e565b92915050565b60006020828403121561082957600080fd5b600061083784828501610802565b91505092915050565b61084981610b98565b82525050565b61085881610baa565b82525050565b600061086b601a83610a72565b91507f4572726f722c206e6f2070726576696f7573206465706f7369740000000000006000830152602082019050919050565b60006108ab602283610a72565b91507f4572726f722e206465706f736974206d757374206265203e3d20302e3031204560008301527f54480000000000000000000000000000000000000000000000000000000000006020830152604082019050919050565b6000610911601d83610a72565b91507f4572726f722c206465706f73697420616c7265616479206163746976650000006000830152602082019050919050565b61094d81610bd6565b82525050565b60006040820190506109686000830185610840565b6109756020830184610944565b9392505050565b6000602082019050610991600083018461084f565b92915050565b600060208201905081810360008301526109b08161085e565b9050919050565b600060208201905081810360008301526109d08161089e565b9050919050565b600060208201905081810360008301526109f081610904565b9050919050565b6000602082019050610a0c6000830184610944565b92915050565b6000604082019050610a276000830185610944565b610a346020830184610944565b9392505050565b6000606082019050610a506000830186610944565b610a5d6020830185610944565b610a6a6040830184610944565b949350505050565b600082825260208201905092915050565b6000610a8e82610bd6565b9150610a9983610bd6565b9250827fffffffffffffffffffffffffffffffffffffffffffffffffffffffffffffffff03821115610ace57610acd610be0565b5b828201905092915050565b6000610ae482610bd6565b9150610aef83610bd6565b925082610aff57610afe610c0f565b5b828204905092915050565b6000610b1582610bd6565b9150610b2083610bd6565b9250817fffffffffffffffffffffffffffffffffffffffffffffffffffffffffffffffff0483118215151615610b5957610b58610be0565b5b828202905092915050565b6000610b6f82610bd6565b9150610b7a83610bd6565b925082821015610b8d57610b8c610be0565b5b828203905092915050565b6000610ba382610bb6565b9050919050565b60008115159050919050565b600073ffffffffffffffffffffffffffffffffffffffff82169050919050565b6000819050919050565b7f4e487b7100000000000000000000000000000000000000000000000000000000600052601160045260246000fd5b7f4e487b7100000000000000000000000000000000000000000000000000000000600052601260045260246000fd5b610c4781610b98565b8114610c5257600080fd5b5056fea26469706673582212204687c02917c8861696a29cc81302fac4bfd1c020d48c363368a2703a2f098a9c64736f6c63430008000033",
  "immutableReferences": {},
  "source": "// SPDX-License-Identifier: MIT\r\npragma solidity 0.8.0;\r\n\r\nimport \"./Token.sol\";\r\n\r\ncontract DBank {\r\n    //assign Token contract to variable\r\n    Token private token;\r\n    //add mappings\r\n    mapping(address => uint) public etherBalanceOf;\r\n    mapping(address => uint) public depositStart;\r\n    mapping(address => bool) public isDeposited;\r\n\r\n    //add event\r\n    event Deposite(address indexed user, uint etherAmout, uint timeStart);\r\n    event Withdraw(address indexed user, uint etherAmout, uint depositTime, uint interest);\r\n    //pass as constructor argument deployed Token contract\r\n    constructor(Token _token) {\r\n        token = _token;\r\n    }\r\n\r\n    function deposit() payable public {\r\n        //check if msg.sender didn't already deposited funds\r\n        require(isDeposited[msg.sender] == false, \"Error, deposit already active\");\r\n        //check if msg.value is >= than 0.01 ETH\r\n        require(msg.value >= 1e16, \"Error. deposit must be >= 0.01 ETH\");\r\n        //increase msg.sender ether deposit balance\r\n        etherBalanceOf[msg.sender] = etherBalanceOf[msg.sender] + msg.value;\r\n        //start msg.sender hodling time\r\n        depositStart[msg.sender] = depositStart[msg.sender] + block.timestamp;\r\n\r\n        //set msg.sender deposit status to true\r\n        isDeposited[msg.sender] = true;\r\n        //emit Deposit event\r\n        emit Deposite(msg.sender, msg.value, block.timestamp);\r\n    }\r\n\r\n    function withdraw() public {\r\n            require(isDeposited[msg.sender]==true, 'Error, no previous deposit');\r\n            uint userBalance = etherBalanceOf[msg.sender]; //for event\r\n\r\n            //check user's hodl time\r\n            uint depositTime = block.timestamp - depositStart[msg.sender];\r\n\r\n            //31668017 - interest(10% APY) per second for min. deposit amount (0.01 ETH), cuz:\r\n            //1e15(10% of 0.01 ETH) / 31577600 (seconds in 365.25 days)\r\n\r\n            //(etherBalanceOf[msg.sender] / 1e16) - calc. how much higher interest will be (based on deposit), e.g.:\r\n            //for min. deposit (0.01 ETH), (etherBalanceOf[msg.sender] / 1e16) = 1 (the same, 31668017/s)\r\n            //for deposit 0.02 ETH, (etherBalanceOf[msg.sender] / 1e16) = 2 (doubled, (2*31668017)/s)\r\n            uint interestPerSecond = 31668017 * (etherBalanceOf[msg.sender] / 1e16);\r\n            uint interest = interestPerSecond * depositTime;\r\n\r\n            //send funds to user\r\n            payable(msg.sender).transfer(etherBalanceOf[msg.sender]); //eth back to user\r\n            token.mint(msg.sender, interest); //interest to user\r\n\r\n            //reset depositer data\r\n            depositStart[msg.sender] = 0;\r\n            etherBalanceOf[msg.sender] = 0;\r\n            isDeposited[msg.sender] = false;\r\n\r\n            emit Withdraw(msg.sender, userBalance, depositTime, interest);\r\n    }\r\n    \r\n}",
  "sourcePath": "D:\\creativity\\dbank\\truffle\\contracts\\DBank.sol",
  "compiler": {
    "name": "solc",
    "version": "0.8.0+commit.c7dfd78e.Emscripten.clang"
  },
  "schemaVersion": "3.4.7",
  "updatedAt": "2022-05-11T07:17:44.058Z",
  "networkType": "ethereum",
  "devdoc": {
    "kind": "dev",
    "methods": {},
    "version": 1
  },
  "userdoc": {
    "kind": "user",
    "methods": {},
    "version": 1
  }
}